{
  "_format": "hh-sol-artifact-1",
  "contractName": "MyEpicNFT",
  "sourceName": "contracts/MyEpicNFT.sol",
  "abi": [
    {
      "inputs": [],
      "stateMutability": "nonpayable",
      "type": "constructor"
    },
    {
      "anonymous": false,
      "inputs": [
        {
          "indexed": true,
          "internalType": "address",
          "name": "owner",
          "type": "address"
        },
        {
          "indexed": true,
          "internalType": "address",
          "name": "approved",
          "type": "address"
        },
        {
          "indexed": true,
          "internalType": "uint256",
          "name": "tokenId",
          "type": "uint256"
        }
      ],
      "name": "Approval",
      "type": "event"
    },
    {
      "anonymous": false,
      "inputs": [
        {
          "indexed": true,
          "internalType": "address",
          "name": "owner",
          "type": "address"
        },
        {
          "indexed": true,
          "internalType": "address",
          "name": "operator",
          "type": "address"
        },
        {
          "indexed": false,
          "internalType": "bool",
          "name": "approved",
          "type": "bool"
        }
      ],
      "name": "ApprovalForAll",
      "type": "event"
    },
    {
      "anonymous": false,
      "inputs": [
        {
          "indexed": false,
          "internalType": "address",
          "name": "sender",
          "type": "address"
        },
        {
          "indexed": false,
          "internalType": "uint256",
          "name": "tokenId",
          "type": "uint256"
        }
      ],
      "name": "NewEpicNFTMinted",
      "type": "event"
    },
    {
      "anonymous": false,
      "inputs": [
        {
          "indexed": true,
          "internalType": "address",
          "name": "from",
          "type": "address"
        },
        {
          "indexed": true,
          "internalType": "address",
          "name": "to",
          "type": "address"
        },
        {
          "indexed": true,
          "internalType": "uint256",
          "name": "tokenId",
          "type": "uint256"
        }
      ],
      "name": "Transfer",
      "type": "event"
    },
    {
      "inputs": [
        {
          "internalType": "address",
          "name": "to",
          "type": "address"
        },
        {
          "internalType": "uint256",
          "name": "tokenId",
          "type": "uint256"
        }
      ],
      "name": "approve",
      "outputs": [],
      "stateMutability": "nonpayable",
      "type": "function"
    },
    {
      "inputs": [
        {
          "internalType": "address",
          "name": "owner",
          "type": "address"
        }
      ],
      "name": "balanceOf",
      "outputs": [
        {
          "internalType": "uint256",
          "name": "",
          "type": "uint256"
        }
      ],
      "stateMutability": "view",
      "type": "function"
    },
    {
      "inputs": [
        {
          "internalType": "uint256",
          "name": "tokenId",
          "type": "uint256"
        }
      ],
      "name": "getApproved",
      "outputs": [
        {
          "internalType": "address",
          "name": "",
          "type": "address"
        }
      ],
      "stateMutability": "view",
      "type": "function"
    },
    {
      "inputs": [],
      "name": "getNftCount",
      "outputs": [
        {
          "internalType": "uint256",
          "name": "",
          "type": "uint256"
        }
      ],
      "stateMutability": "view",
      "type": "function"
    },
    {
      "inputs": [
        {
          "internalType": "address",
          "name": "owner",
          "type": "address"
        },
        {
          "internalType": "address",
          "name": "operator",
          "type": "address"
        }
      ],
      "name": "isApprovedForAll",
      "outputs": [
        {
          "internalType": "bool",
          "name": "",
          "type": "bool"
        }
      ],
      "stateMutability": "view",
      "type": "function"
    },
    {
      "inputs": [
        {
          "internalType": "string",
          "name": "_tokenUri",
          "type": "string"
        }
      ],
      "name": "makeAnEpicNFT",
      "outputs": [],
      "stateMutability": "nonpayable",
      "type": "function"
    },
    {
      "inputs": [],
      "name": "name",
      "outputs": [
        {
          "internalType": "string",
          "name": "",
          "type": "string"
        }
      ],
      "stateMutability": "view",
      "type": "function"
    },
    {
      "inputs": [
        {
          "internalType": "uint256",
          "name": "tokenId",
          "type": "uint256"
        }
      ],
      "name": "ownerOf",
      "outputs": [
        {
          "internalType": "address",
          "name": "",
          "type": "address"
        }
      ],
      "stateMutability": "view",
      "type": "function"
    },
    {
      "inputs": [
        {
          "internalType": "address",
          "name": "from",
          "type": "address"
        },
        {
          "internalType": "address",
          "name": "to",
          "type": "address"
        },
        {
          "internalType": "uint256",
          "name": "tokenId",
          "type": "uint256"
        }
      ],
      "name": "safeTransferFrom",
      "outputs": [],
      "stateMutability": "nonpayable",
      "type": "function"
    },
    {
      "inputs": [
        {
          "internalType": "address",
          "name": "from",
          "type": "address"
        },
        {
          "internalType": "address",
          "name": "to",
          "type": "address"
        },
        {
          "internalType": "uint256",
          "name": "tokenId",
          "type": "uint256"
        },
        {
          "internalType": "bytes",
          "name": "data",
          "type": "bytes"
        }
      ],
      "name": "safeTransferFrom",
      "outputs": [],
      "stateMutability": "nonpayable",
      "type": "function"
    },
    {
      "inputs": [
        {
          "internalType": "address",
          "name": "operator",
          "type": "address"
        },
        {
          "internalType": "bool",
          "name": "approved",
          "type": "bool"
        }
      ],
      "name": "setApprovalForAll",
      "outputs": [],
      "stateMutability": "nonpayable",
      "type": "function"
    },
    {
      "inputs": [
        {
          "internalType": "bytes4",
          "name": "interfaceId",
          "type": "bytes4"
        }
      ],
      "name": "supportsInterface",
      "outputs": [
        {
          "internalType": "bool",
          "name": "",
          "type": "bool"
        }
      ],
      "stateMutability": "view",
      "type": "function"
    },
    {
      "inputs": [],
      "name": "symbol",
      "outputs": [
        {
          "internalType": "string",
          "name": "",
          "type": "string"
        }
      ],
      "stateMutability": "view",
      "type": "function"
    },
    {
      "inputs": [
        {
          "internalType": "uint256",
          "name": "tokenId",
          "type": "uint256"
        }
      ],
      "name": "tokenURI",
      "outputs": [
        {
          "internalType": "string",
          "name": "",
          "type": "string"
        }
      ],
      "stateMutability": "view",
      "type": "function"
    },
    {
      "inputs": [
        {
          "internalType": "address",
          "name": "from",
          "type": "address"
        },
        {
          "internalType": "address",
          "name": "to",
          "type": "address"
        },
        {
          "internalType": "uint256",
          "name": "tokenId",
          "type": "uint256"
        }
      ],
      "name": "transferFrom",
      "outputs": [],
      "stateMutability": "nonpayable",
      "type": "function"
    }
  ],
  "bytecode": "0x608060405260326007553480156200001657600080fd5b506040518060400160405280600981526020017f5371756172654e465400000000000000000000000000000000000000000000008152506040518060400160405280600681526020017f535155415245000000000000000000000000000000000000000000000000000081525081600090805190602001906200009b929190620001d4565b508060019080519060200190620000b4929190620001d4565b505050620001026040518060400160405280601e81526020017f54686973206973206d79204e465420636f6e74726163742e20576f61682100008152506200010860201b62000b701760201c565b620003b1565b620001a8816040516024016200011f9190620002c5565b6040516020818303038152906040527f41304fac000000000000000000000000000000000000000000000000000000007bffffffffffffffffffffffffffffffffffffffffffffffffffffffff19166020820180517bffffffffffffffffffffffffffffffffffffffffffffffffffffffff8381831617835250505050620001ab60201b60201c565b50565b60008151905060006a636f6e736f6c652e6c6f679050602083016000808483855afa5050505050565b828054620001e2906200033b565b90600052602060002090601f01602090048101928262000206576000855562000252565b82601f106200022157805160ff191683800117855562000252565b8280016001018555821562000252579182015b828111156200025157825182559160200191906001019062000234565b5b50905062000261919062000265565b5090565b5b808211156200028057600081600090555060010162000266565b5090565b60006200029182620002e9565b6200029d8185620002f4565b9350620002af81856020860162000305565b620002ba81620003a0565b840191505092915050565b60006020820190508181036000830152620002e1818462000284565b905092915050565b600081519050919050565b600082825260208201905092915050565b60005b838110156200032557808201518184015260208101905062000308565b8381111562000335576000848401525b50505050565b600060028204905060018216806200035457607f821691505b602082108114156200036b576200036a62000371565b5b50919050565b7f4e487b7100000000000000000000000000000000000000000000000000000000600052602260045260246000fd5b6000601f19601f8301169050919050565b612bf480620003c16000396000f3fe608060405234801561001057600080fd5b50600436106100f55760003560e01c80636352211e11610097578063a22cb46511610066578063a22cb46514610284578063b88d4fde146102a0578063c87b56dd146102bc578063e985e9c5146102ec576100f5565b80636352211e146101e8578063692f1d121461021857806370a082311461023657806395d89b4114610266576100f5565b8063095ea7b3116100d3578063095ea7b31461017857806323b872dd1461019457806339fa8daf146101b057806342842e0e146101cc576100f5565b806301ffc9a7146100fa57806306fdde031461012a578063081812fc14610148575b600080fd5b610114600480360381019061010f9190611dd6565b61031c565b60405161012191906121dd565b60405180910390f35b6101326103fe565b60405161013f91906121f8565b60405180910390f35b610162600480360381019061015d9190611e69565b610490565b60405161016f919061214d565b60405180910390f35b610192600480360381019061018d9190611d9a565b6104d6565b005b6101ae60048036038101906101a99190611c94565b6105ee565b005b6101ca60048036038101906101c59190611e28565b61064e565b005b6101e660048036038101906101e19190611c94565b610724565b005b61020260048036038101906101fd9190611e69565b610744565b60405161020f919061214d565b60405180910390f35b6102206107f6565b60405161022d91906123f8565b60405180910390f35b610250600480360381019061024b9190611c2f565b610807565b60405161025d91906123f8565b60405180910390f35b61026e6108bf565b60405161027b91906121f8565b60405180910390f35b61029e60048036038101906102999190611d5e565b610951565b005b6102ba60048036038101906102b59190611ce3565b610967565b005b6102d660048036038101906102d19190611e69565b6109c9565b6040516102e391906121f8565b60405180910390f35b61030660048036038101906103019190611c58565b610adc565b60405161031391906121dd565b60405180910390f35b60007f80ac58cd000000000000000000000000000000000000000000000000000000007bffffffffffffffffffffffffffffffffffffffffffffffffffffffff1916827bffffffffffffffffffffffffffffffffffffffffffffffffffffffff191614806103e757507f5b5e139f000000000000000000000000000000000000000000000000000000007bffffffffffffffffffffffffffffffffffffffffffffffffffffffff1916827bffffffffffffffffffffffffffffffffffffffffffffffffffffffff1916145b806103f757506103f682610c09565b5b9050919050565b60606000805461040d9061264e565b80601f01602080910402602001604051908101604052809291908181526020018280546104399061264e565b80156104865780601f1061045b57610100808354040283529160200191610486565b820191906000526020600020905b81548152906001019060200180831161046957829003601f168201915b5050505050905090565b600061049b82610c73565b6004600083815260200190815260200160002060009054906101000a900473ffffffffffffffffffffffffffffffffffffffff169050919050565b60006104e182610744565b90508073ffffffffffffffffffffffffffffffffffffffff168373ffffffffffffffffffffffffffffffffffffffff161415610552576040517f08c379a000000000000000000000000000000000000000000000000000000000815260040161054990612398565b60405180910390fd5b8073ffffffffffffffffffffffffffffffffffffffff16610571610cbe565b73ffffffffffffffffffffffffffffffffffffffff1614806105a0575061059f8161059a610cbe565b610adc565b5b6105df576040517f08c379a00000000000000000000000000000000000000000000000000000000081526004016105d690612338565b60405180910390fd5b6105e98383610cc6565b505050565b6105ff6105f9610cbe565b82610d7f565b61063e576040517f08c379a0000000000000000000000000000000000000000000000000000000008152600401610635906123d8565b60405180910390fd5b610649838383610e14565b505050565b600061065a600861107b565b905060075481106106a0576040517f08c379a0000000000000000000000000000000000000000000000000000000008152600401610697906123b8565b60405180910390fd5b60008290506106af3383611089565b6106b982826110a7565b6106c3600861111b565b6106e6604051806060016040528060258152602001612b9a602591398333611131565b7febb98688741ffa4c7589bf325de30cf7becb63de567842e1ccdb6cb949fdc82c33836040516107179291906121b4565b60405180910390a1505050565b61073f83838360405180602001604052806000815250610967565b505050565b6000806002600084815260200190815260200160002060009054906101000a900473ffffffffffffffffffffffffffffffffffffffff169050600073ffffffffffffffffffffffffffffffffffffffff168173ffffffffffffffffffffffffffffffffffffffff1614156107ed576040517f08c379a00000000000000000000000000000000000000000000000000000000081526004016107e490612378565b60405180910390fd5b80915050919050565b6000610802600861107b565b905090565b60008073ffffffffffffffffffffffffffffffffffffffff168273ffffffffffffffffffffffffffffffffffffffff161415610878576040517f08c379a000000000000000000000000000000000000000000000000000000000815260040161086f906122f8565b60405180910390fd5b600360008373ffffffffffffffffffffffffffffffffffffffff1673ffffffffffffffffffffffffffffffffffffffff168152602001908152602001600020549050919050565b6060600180546108ce9061264e565b80601f01602080910402602001604051908101604052809291908181526020018280546108fa9061264e565b80156109475780601f1061091c57610100808354040283529160200191610947565b820191906000526020600020905b81548152906001019060200180831161092a57829003601f168201915b5050505050905090565b61096361095c610cbe565b83836111d0565b5050565b610978610972610cbe565b83610d7f565b6109b7576040517f08c379a00000000000000000000000000000000000000000000000000000000081526004016109ae906123d8565b60405180910390fd5b6109c38484848461133d565b50505050565b60606109d482610c73565b60006006600084815260200190815260200160002080546109f49061264e565b80601f0160208091040260200160405190810160405280929190818152602001828054610a209061264e565b8015610a6d5780601f10610a4257610100808354040283529160200191610a6d565b820191906000526020600020905b815481529060010190602001808311610a5057829003601f168201915b505050505090506000610a7e611399565b9050600081511415610a94578192505050610ad7565b600082511115610ac9578082604051602001610ab1929190612129565b60405160208183030381529060405292505050610ad7565b610ad2846113b0565b925050505b919050565b6000600560008473ffffffffffffffffffffffffffffffffffffffff1673ffffffffffffffffffffffffffffffffffffffff16815260200190815260200160002060008373ffffffffffffffffffffffffffffffffffffffff1673ffffffffffffffffffffffffffffffffffffffff16815260200190815260200160002060009054906101000a900460ff16905092915050565b610c0681604051602401610b8491906121f8565b6040516020818303038152906040527f41304fac000000000000000000000000000000000000000000000000000000007bffffffffffffffffffffffffffffffffffffffffffffffffffffffff19166020820180517bffffffffffffffffffffffffffffffffffffffffffffffffffffffff8381831617835250505050611418565b50565b60007f01ffc9a7000000000000000000000000000000000000000000000000000000007bffffffffffffffffffffffffffffffffffffffffffffffffffffffff1916827bffffffffffffffffffffffffffffffffffffffffffffffffffffffff1916149050919050565b610c7c81611441565b610cbb576040517f08c379a0000000000000000000000000000000000000000000000000000000008152600401610cb290612378565b60405180910390fd5b50565b600033905090565b816004600083815260200190815260200160002060006101000a81548173ffffffffffffffffffffffffffffffffffffffff021916908373ffffffffffffffffffffffffffffffffffffffff160217905550808273ffffffffffffffffffffffffffffffffffffffff16610d3983610744565b73ffffffffffffffffffffffffffffffffffffffff167f8c5be1e5ebec7d5bd14f71427d1e84f3dd0314c0f7b2291e5b200ac8c7c3b92560405160405180910390a45050565b600080610d8b83610744565b90508073ffffffffffffffffffffffffffffffffffffffff168473ffffffffffffffffffffffffffffffffffffffff161480610dcd5750610dcc8185610adc565b5b80610e0b57508373ffffffffffffffffffffffffffffffffffffffff16610df384610490565b73ffffffffffffffffffffffffffffffffffffffff16145b91505092915050565b8273ffffffffffffffffffffffffffffffffffffffff16610e3482610744565b73ffffffffffffffffffffffffffffffffffffffff1614610e8a576040517f08c379a0000000000000000000000000000000000000000000000000000000008152600401610e8190612278565b60405180910390fd5b600073ffffffffffffffffffffffffffffffffffffffff168273ffffffffffffffffffffffffffffffffffffffff161415610efa576040517f08c379a0000000000000000000000000000000000000000000000000000000008152600401610ef1906122b8565b60405180910390fd5b610f058383836114ad565b610f10600082610cc6565b6001600360008573ffffffffffffffffffffffffffffffffffffffff1673ffffffffffffffffffffffffffffffffffffffff1681526020019081526020016000206000828254610f609190612564565b925050819055506001600360008473ffffffffffffffffffffffffffffffffffffffff1673ffffffffffffffffffffffffffffffffffffffff1681526020019081526020016000206000828254610fb791906124dd565b92505081905550816002600083815260200190815260200160002060006101000a81548173ffffffffffffffffffffffffffffffffffffffff021916908373ffffffffffffffffffffffffffffffffffffffff160217905550808273ffffffffffffffffffffffffffffffffffffffff168473ffffffffffffffffffffffffffffffffffffffff167fddf252ad1be2c89b69c2b068fc378daa952ba7f163c4a11628f55a4df523b3ef60405160405180910390a46110768383836114b2565b505050565b600081600001549050919050565b6110a38282604051806020016040528060008152506114b7565b5050565b6110b082611441565b6110ef576040517f08c379a00000000000000000000000000000000000000000000000000000000081526004016110e690612318565b60405180910390fd5b80600660008481526020019081526020016000209080519060200190611116929190611a53565b505050565b6001816000016000828254019250508190555050565b6111cb8383836040516024016111499392919061221a565b6040516020818303038152906040527fe3849f79000000000000000000000000000000000000000000000000000000007bffffffffffffffffffffffffffffffffffffffffffffffffffffffff19166020820180517bffffffffffffffffffffffffffffffffffffffffffffffffffffffff8381831617835250505050611418565b505050565b8173ffffffffffffffffffffffffffffffffffffffff168373ffffffffffffffffffffffffffffffffffffffff16141561123f576040517f08c379a0000000000000000000000000000000000000000000000000000000008152600401611236906122d8565b60405180910390fd5b80600560008573ffffffffffffffffffffffffffffffffffffffff1673ffffffffffffffffffffffffffffffffffffffff16815260200190815260200160002060008473ffffffffffffffffffffffffffffffffffffffff1673ffffffffffffffffffffffffffffffffffffffff16815260200190815260200160002060006101000a81548160ff0219169083151502179055508173ffffffffffffffffffffffffffffffffffffffff168373ffffffffffffffffffffffffffffffffffffffff167f17307eab39ab6107e8899845ad3d59bd9653f200f220920489ca2b5937696c318360405161133091906121dd565b60405180910390a3505050565b611348848484610e14565b61135484848484611512565b611393576040517f08c379a000000000000000000000000000000000000000000000000000000000815260040161138a90612258565b60405180910390fd5b50505050565b606060405180602001604052806000815250905090565b60606113bb82610c73565b60006113c5611399565b905060008151116113e55760405180602001604052806000815250611410565b806113ef846116a9565b604051602001611400929190612129565b6040516020818303038152906040525b915050919050565b60008151905060006a636f6e736f6c652e6c6f679050602083016000808483855afa5050505050565b60008073ffffffffffffffffffffffffffffffffffffffff166002600084815260200190815260200160002060009054906101000a900473ffffffffffffffffffffffffffffffffffffffff1673ffffffffffffffffffffffffffffffffffffffff1614159050919050565b505050565b505050565b6114c18383611856565b6114ce6000848484611512565b61150d576040517f08c379a000000000000000000000000000000000000000000000000000000000815260040161150490612258565b60405180910390fd5b505050565b60006115338473ffffffffffffffffffffffffffffffffffffffff16611a30565b1561169c578373ffffffffffffffffffffffffffffffffffffffff1663150b7a0261155c610cbe565b8786866040518563ffffffff1660e01b815260040161157e9493929190612168565b602060405180830381600087803b15801561159857600080fd5b505af19250505080156115c957506040513d601f19601f820116820180604052508101906115c69190611dff565b60015b61164c573d80600081146115f9576040519150601f19603f3d011682016040523d82523d6000602084013e6115fe565b606091505b50600081511415611644576040517f08c379a000000000000000000000000000000000000000000000000000000000815260040161163b90612258565b60405180910390fd5b805181602001fd5b63150b7a0260e01b7bffffffffffffffffffffffffffffffffffffffffffffffffffffffff1916817bffffffffffffffffffffffffffffffffffffffffffffffffffffffff1916149150506116a1565b600190505b949350505050565b606060008214156116f1576040518060400160405280600181526020017f30000000000000000000000000000000000000000000000000000000000000008152509050611851565b600082905060005b6000821461172357808061170c906126b1565b915050600a8261171c9190612533565b91506116f9565b60008167ffffffffffffffff811115611765577f4e487b7100000000000000000000000000000000000000000000000000000000600052604160045260246000fd5b6040519080825280601f01601f1916602001820160405280156117975781602001600182028036833780820191505090505b5090505b6000851461184a576001826117b09190612564565b9150600a856117bf91906126fa565b60306117cb91906124dd565b60f81b818381518110611807577f4e487b7100000000000000000000000000000000000000000000000000000000600052603260045260246000fd5b60200101907effffffffffffffffffffffffffffffffffffffffffffffffffffffffffffff1916908160001a905350600a856118439190612533565b945061179b565b8093505050505b919050565b600073ffffffffffffffffffffffffffffffffffffffff168273ffffffffffffffffffffffffffffffffffffffff1614156118c6576040517f08c379a00000000000000000000000000000000000000000000000000000000081526004016118bd90612358565b60405180910390fd5b6118cf81611441565b1561190f576040517f08c379a000000000000000000000000000000000000000000000000000000000815260040161190690612298565b60405180910390fd5b61191b600083836114ad565b6001600360008473ffffffffffffffffffffffffffffffffffffffff1673ffffffffffffffffffffffffffffffffffffffff168152602001908152602001600020600082825461196b91906124dd565b92505081905550816002600083815260200190815260200160002060006101000a81548173ffffffffffffffffffffffffffffffffffffffff021916908373ffffffffffffffffffffffffffffffffffffffff160217905550808273ffffffffffffffffffffffffffffffffffffffff16600073ffffffffffffffffffffffffffffffffffffffff167fddf252ad1be2c89b69c2b068fc378daa952ba7f163c4a11628f55a4df523b3ef60405160405180910390a4611a2c600083836114b2565b5050565b6000808273ffffffffffffffffffffffffffffffffffffffff163b119050919050565b828054611a5f9061264e565b90600052602060002090601f016020900481019282611a815760008555611ac8565b82601f10611a9a57805160ff1916838001178555611ac8565b82800160010185558215611ac8579182015b82811115611ac7578251825591602001919060010190611aac565b5b509050611ad59190611ad9565b5090565b5b80821115611af2576000816000905550600101611ada565b5090565b6000611b09611b0484612438565b612413565b905082815260208101848484011115611b2157600080fd5b611b2c84828561260c565b509392505050565b6000611b47611b4284612469565b612413565b905082815260208101848484011115611b5f57600080fd5b611b6a84828561260c565b509392505050565b600081359050611b8181612b3d565b92915050565b600081359050611b9681612b54565b92915050565b600081359050611bab81612b6b565b92915050565b600081519050611bc081612b6b565b92915050565b600082601f830112611bd757600080fd5b8135611be7848260208601611af6565b91505092915050565b600082601f830112611c0157600080fd5b8135611c11848260208601611b34565b91505092915050565b600081359050611c2981612b82565b92915050565b600060208284031215611c4157600080fd5b6000611c4f84828501611b72565b91505092915050565b60008060408385031215611c6b57600080fd5b6000611c7985828601611b72565b9250506020611c8a85828601611b72565b9150509250929050565b600080600060608486031215611ca957600080fd5b6000611cb786828701611b72565b9350506020611cc886828701611b72565b9250506040611cd986828701611c1a565b9150509250925092565b60008060008060808587031215611cf957600080fd5b6000611d0787828801611b72565b9450506020611d1887828801611b72565b9350506040611d2987828801611c1a565b925050606085013567ffffffffffffffff811115611d4657600080fd5b611d5287828801611bc6565b91505092959194509250565b60008060408385031215611d7157600080fd5b6000611d7f85828601611b72565b9250506020611d9085828601611b87565b9150509250929050565b60008060408385031215611dad57600080fd5b6000611dbb85828601611b72565b9250506020611dcc85828601611c1a565b9150509250929050565b600060208284031215611de857600080fd5b6000611df684828501611b9c565b91505092915050565b600060208284031215611e1157600080fd5b6000611e1f84828501611bb1565b91505092915050565b600060208284031215611e3a57600080fd5b600082013567ffffffffffffffff811115611e5457600080fd5b611e6084828501611bf0565b91505092915050565b600060208284031215611e7b57600080fd5b6000611e8984828501611c1a565b91505092915050565b611e9b81612598565b82525050565b611eaa816125aa565b82525050565b6000611ebb8261249a565b611ec581856124b0565b9350611ed581856020860161261b565b611ede816127e7565b840191505092915050565b6000611ef4826124a5565b611efe81856124c1565b9350611f0e81856020860161261b565b611f17816127e7565b840191505092915050565b6000611f2d826124a5565b611f3781856124d2565b9350611f4781856020860161261b565b80840191505092915050565b6000611f606032836124c1565b9150611f6b826127f8565b604082019050919050565b6000611f836025836124c1565b9150611f8e82612847565b604082019050919050565b6000611fa6601c836124c1565b9150611fb182612896565b602082019050919050565b6000611fc96024836124c1565b9150611fd4826128bf565b604082019050919050565b6000611fec6019836124c1565b9150611ff78261290e565b602082019050919050565b600061200f6029836124c1565b915061201a82612937565b604082019050919050565b6000612032602e836124c1565b915061203d82612986565b604082019050919050565b6000612055603e836124c1565b9150612060826129d5565b604082019050919050565b60006120786020836124c1565b915061208382612a24565b602082019050919050565b600061209b6018836124c1565b91506120a682612a4d565b602082019050919050565b60006120be6021836124c1565b91506120c982612a76565b604082019050919050565b60006120e16014836124c1565b91506120ec82612ac5565b602082019050919050565b6000612104602e836124c1565b915061210f82612aee565b604082019050919050565b61212381612602565b82525050565b60006121358285611f22565b91506121418284611f22565b91508190509392505050565b60006020820190506121626000830184611e92565b92915050565b600060808201905061217d6000830187611e92565b61218a6020830186611e92565b612197604083018561211a565b81810360608301526121a98184611eb0565b905095945050505050565b60006040820190506121c96000830185611e92565b6121d6602083018461211a565b9392505050565b60006020820190506121f26000830184611ea1565b92915050565b600060208201905081810360008301526122128184611ee9565b905092915050565b600060608201905081810360008301526122348186611ee9565b9050612243602083018561211a565b6122506040830184611e92565b949350505050565b6000602082019050818103600083015261227181611f53565b9050919050565b6000602082019050818103600083015261229181611f76565b9050919050565b600060208201905081810360008301526122b181611f99565b9050919050565b600060208201905081810360008301526122d181611fbc565b9050919050565b600060208201905081810360008301526122f181611fdf565b9050919050565b6000602082019050818103600083015261231181612002565b9050919050565b6000602082019050818103600083015261233181612025565b9050919050565b6000602082019050818103600083015261235181612048565b9050919050565b600060208201905081810360008301526123718161206b565b9050919050565b600060208201905081810360008301526123918161208e565b9050919050565b600060208201905081810360008301526123b1816120b1565b9050919050565b600060208201905081810360008301526123d1816120d4565b9050919050565b600060208201905081810360008301526123f1816120f7565b9050919050565b600060208201905061240d600083018461211a565b92915050565b600061241d61242e565b90506124298282612680565b919050565b6000604051905090565b600067ffffffffffffffff821115612453576124526127b8565b5b61245c826127e7565b9050602081019050919050565b600067ffffffffffffffff821115612484576124836127b8565b5b61248d826127e7565b9050602081019050919050565b600081519050919050565b600081519050919050565b600082825260208201905092915050565b600082825260208201905092915050565b600081905092915050565b60006124e882612602565b91506124f383612602565b9250827fffffffffffffffffffffffffffffffffffffffffffffffffffffffffffffffff038211156125285761252761272b565b5b828201905092915050565b600061253e82612602565b915061254983612602565b9250826125595761255861275a565b5b828204905092915050565b600061256f82612602565b915061257a83612602565b92508282101561258d5761258c61272b565b5b828203905092915050565b60006125a3826125e2565b9050919050565b60008115159050919050565b60007fffffffff0000000000000000000000000000000000000000000000000000000082169050919050565b600073ffffffffffffffffffffffffffffffffffffffff82169050919050565b6000819050919050565b82818337600083830152505050565b60005b8381101561263957808201518184015260208101905061261e565b83811115612648576000848401525b50505050565b6000600282049050600182168061266657607f821691505b6020821081141561267a57612679612789565b5b50919050565b612689826127e7565b810181811067ffffffffffffffff821117156126a8576126a76127b8565b5b80604052505050565b60006126bc82612602565b91507fffffffffffffffffffffffffffffffffffffffffffffffffffffffffffffffff8214156126ef576126ee61272b565b5b600182019050919050565b600061270582612602565b915061271083612602565b9250826127205761271f61275a565b5b828206905092915050565b7f4e487b7100000000000000000000000000000000000000000000000000000000600052601160045260246000fd5b7f4e487b7100000000000000000000000000000000000000000000000000000000600052601260045260246000fd5b7f4e487b7100000000000000000000000000000000000000000000000000000000600052602260045260246000fd5b7f4e487b7100000000000000000000000000000000000000000000000000000000600052604160045260246000fd5b6000601f19601f8301169050919050565b7f4552433732313a207472616e7366657220746f206e6f6e20455243373231526560008201527f63656976657220696d706c656d656e7465720000000000000000000000000000602082015250565b7f4552433732313a207472616e736665722066726f6d20696e636f72726563742060008201527f6f776e6572000000000000000000000000000000000000000000000000000000602082015250565b7f4552433732313a20746f6b656e20616c7265616479206d696e74656400000000600082015250565b7f4552433732313a207472616e7366657220746f20746865207a65726f2061646460008201527f7265737300000000000000000000000000000000000000000000000000000000602082015250565b7f4552433732313a20617070726f766520746f2063616c6c657200000000000000600082015250565b7f4552433732313a2061646472657373207a65726f206973206e6f74206120766160008201527f6c6964206f776e65720000000000000000000000000000000000000000000000602082015250565b7f45524337323155524953746f726167653a2055524920736574206f66206e6f6e60008201527f6578697374656e7420746f6b656e000000000000000000000000000000000000602082015250565b7f4552433732313a20617070726f76652063616c6c6572206973206e6f7420746f60008201527f6b656e206f776e6572206e6f7220617070726f76656420666f7220616c6c0000602082015250565b7f4552433732313a206d696e7420746f20746865207a65726f2061646472657373600082015250565b7f4552433732313a20696e76616c696420746f6b656e2049440000000000000000600082015250565b7f4552433732313a20617070726f76616c20746f2063757272656e74206f776e6560008201527f7200000000000000000000000000000000000000000000000000000000000000602082015250565b7f4e6f206d6f7265204e465473206c656674203a2f000000000000000000000000600082015250565b7f4552433732313a2063616c6c6572206973206e6f7420746f6b656e206f776e6560008201527f72206e6f7220617070726f766564000000000000000000000000000000000000602082015250565b612b4681612598565b8114612b5157600080fd5b50565b612b5d816125aa565b8114612b6857600080fd5b50565b612b74816125b6565b8114612b7f57600080fd5b50565b612b8b81612602565b8114612b9657600080fd5b5056fe416e204e465420772f20494420257320686173206265656e206d696e74656420746f202573a26469706673582212209eb7e8924d25f6b643c71a7faa8508912dfb1ba9aca076fb4e7977c7e6b490cb64736f6c63430008010033",
  "linkReferences": {},
  "deployedLinkReferences": {}
}